{
  "contractName": "NFT",
  "abi": [
    {
      "inputs": [],
      "stateMutability": "nonpayable",
      "type": "constructor"
    },
    {
      "anonymous": false,
      "inputs": [
        {
          "indexed": true,
          "internalType": "address",
          "name": "account",
          "type": "address"
        },
        {
          "indexed": true,
          "internalType": "address",
          "name": "operator",
          "type": "address"
        },
        {
          "indexed": false,
          "internalType": "bool",
          "name": "approved",
          "type": "bool"
        }
      ],
      "name": "ApprovalForAll",
      "type": "event"
    },
    {
      "anonymous": false,
      "inputs": [
        {
          "indexed": true,
          "internalType": "address",
          "name": "previousOwner",
          "type": "address"
        },
        {
          "indexed": true,
          "internalType": "address",
          "name": "newOwner",
          "type": "address"
        }
      ],
      "name": "OwnershipTransferred",
      "type": "event"
    },
    {
      "anonymous": false,
      "inputs": [
        {
          "indexed": true,
          "internalType": "address",
          "name": "operator",
          "type": "address"
        },
        {
          "indexed": true,
          "internalType": "address",
          "name": "from",
          "type": "address"
        },
        {
          "indexed": true,
          "internalType": "address",
          "name": "to",
          "type": "address"
        },
        {
          "indexed": false,
          "internalType": "uint256[]",
          "name": "ids",
          "type": "uint256[]"
        },
        {
          "indexed": false,
          "internalType": "uint256[]",
          "name": "values",
          "type": "uint256[]"
        }
      ],
      "name": "TransferBatch",
      "type": "event"
    },
    {
      "anonymous": false,
      "inputs": [
        {
          "indexed": true,
          "internalType": "address",
          "name": "operator",
          "type": "address"
        },
        {
          "indexed": true,
          "internalType": "address",
          "name": "from",
          "type": "address"
        },
        {
          "indexed": true,
          "internalType": "address",
          "name": "to",
          "type": "address"
        },
        {
          "indexed": false,
          "internalType": "uint256",
          "name": "id",
          "type": "uint256"
        },
        {
          "indexed": false,
          "internalType": "uint256",
          "name": "value",
          "type": "uint256"
        }
      ],
      "name": "TransferSingle",
      "type": "event"
    },
    {
      "anonymous": false,
      "inputs": [
        {
          "indexed": false,
          "internalType": "string",
          "name": "value",
          "type": "string"
        },
        {
          "indexed": true,
          "internalType": "uint256",
          "name": "id",
          "type": "uint256"
        }
      ],
      "name": "URI",
      "type": "event"
    },
    {
      "inputs": [
        {
          "internalType": "uint256",
          "name": "",
          "type": "uint256"
        }
      ],
      "name": "TokenRate",
      "outputs": [
        {
          "internalType": "uint256",
          "name": "",
          "type": "uint256"
        }
      ],
      "stateMutability": "view",
      "type": "function",
      "constant": true
    },
    {
      "inputs": [
        {
          "internalType": "address",
          "name": "",
          "type": "address"
        }
      ],
      "name": "Totalbal",
      "outputs": [
        {
          "internalType": "uint256",
          "name": "",
          "type": "uint256"
        }
      ],
      "stateMutability": "view",
      "type": "function",
      "constant": true
    },
    {
      "inputs": [
        {
          "internalType": "address",
          "name": "account",
          "type": "address"
        },
        {
          "internalType": "uint256",
          "name": "id",
          "type": "uint256"
        }
      ],
      "name": "balanceOf",
      "outputs": [
        {
          "internalType": "uint256",
          "name": "",
          "type": "uint256"
        }
      ],
      "stateMutability": "view",
      "type": "function",
      "constant": true
    },
    {
      "inputs": [
        {
          "internalType": "address[]",
          "name": "accounts",
          "type": "address[]"
        },
        {
          "internalType": "uint256[]",
          "name": "ids",
          "type": "uint256[]"
        }
      ],
      "name": "balanceOfBatch",
      "outputs": [
        {
          "internalType": "uint256[]",
          "name": "",
          "type": "uint256[]"
        }
      ],
      "stateMutability": "view",
      "type": "function",
      "constant": true
    },
    {
      "inputs": [
        {
          "internalType": "address",
          "name": "account",
          "type": "address"
        },
        {
          "internalType": "address",
          "name": "operator",
          "type": "address"
        }
      ],
      "name": "isApprovedForAll",
      "outputs": [
        {
          "internalType": "bool",
          "name": "",
          "type": "bool"
        }
      ],
      "stateMutability": "view",
      "type": "function",
      "constant": true
    },
    {
      "inputs": [
        {
          "internalType": "uint256",
          "name": "",
          "type": "uint256"
        }
      ],
      "name": "minted",
      "outputs": [
        {
          "internalType": "uint256",
          "name": "",
          "type": "uint256"
        }
      ],
      "stateMutability": "view",
      "type": "function",
      "constant": true
    },
    {
      "inputs": [],
      "name": "owner",
      "outputs": [
        {
          "internalType": "address",
          "name": "",
          "type": "address"
        }
      ],
      "stateMutability": "view",
      "type": "function",
      "constant": true
    },
    {
      "inputs": [],
      "name": "renounceOwnership",
      "outputs": [],
      "stateMutability": "nonpayable",
      "type": "function"
    },
    {
      "inputs": [
        {
          "internalType": "address",
          "name": "from",
          "type": "address"
        },
        {
          "internalType": "address",
          "name": "to",
          "type": "address"
        },
        {
          "internalType": "uint256[]",
          "name": "ids",
          "type": "uint256[]"
        },
        {
          "internalType": "uint256[]",
          "name": "amounts",
          "type": "uint256[]"
        },
        {
          "internalType": "bytes",
          "name": "data",
          "type": "bytes"
        }
      ],
      "name": "safeBatchTransferFrom",
      "outputs": [],
      "stateMutability": "nonpayable",
      "type": "function"
    },
    {
      "inputs": [
        {
          "internalType": "address",
          "name": "from",
          "type": "address"
        },
        {
          "internalType": "address",
          "name": "to",
          "type": "address"
        },
        {
          "internalType": "uint256",
          "name": "id",
          "type": "uint256"
        },
        {
          "internalType": "uint256",
          "name": "amount",
          "type": "uint256"
        },
        {
          "internalType": "bytes",
          "name": "data",
          "type": "bytes"
        }
      ],
      "name": "safeTransferFrom",
      "outputs": [],
      "stateMutability": "nonpayable",
      "type": "function"
    },
    {
      "inputs": [
        {
          "internalType": "address",
          "name": "operator",
          "type": "address"
        },
        {
          "internalType": "bool",
          "name": "approved",
          "type": "bool"
        }
      ],
      "name": "setApprovalForAll",
      "outputs": [],
      "stateMutability": "nonpayable",
      "type": "function"
    },
    {
      "inputs": [
        {
          "internalType": "uint256",
          "name": "",
          "type": "uint256"
        }
      ],
      "name": "supplies",
      "outputs": [
        {
          "internalType": "uint256",
          "name": "",
          "type": "uint256"
        }
      ],
      "stateMutability": "view",
      "type": "function",
      "constant": true
    },
    {
      "inputs": [
        {
          "internalType": "bytes4",
          "name": "interfaceId",
          "type": "bytes4"
        }
      ],
      "name": "supportsInterface",
      "outputs": [
        {
          "internalType": "bool",
          "name": "",
          "type": "bool"
        }
      ],
      "stateMutability": "view",
      "type": "function",
      "constant": true
    },
    {
      "inputs": [
        {
          "internalType": "address",
          "name": "newOwner",
          "type": "address"
        }
      ],
      "name": "transferOwnership",
      "outputs": [],
      "stateMutability": "nonpayable",
      "type": "function"
    },
    {
      "inputs": [
        {
          "internalType": "uint256",
          "name": "tokenId",
          "type": "uint256"
        },
        {
          "internalType": "uint256",
          "name": "totalSupply",
          "type": "uint256"
        },
        {
          "internalType": "uint256",
          "name": "Price",
          "type": "uint256"
        },
        {
          "internalType": "string",
          "name": "tokenURI",
          "type": "string"
        }
      ],
      "name": "AddnewToken",
      "outputs": [],
      "stateMutability": "nonpayable",
      "type": "function"
    },
    {
      "inputs": [
        {
          "internalType": "uint256",
          "name": "tokenId",
          "type": "uint256"
        }
      ],
      "name": "uri",
      "outputs": [
        {
          "internalType": "string",
          "name": "",
          "type": "string"
        }
      ],
      "stateMutability": "view",
      "type": "function",
      "constant": true
    },
    {
      "inputs": [
        {
          "internalType": "uint256",
          "name": "tokenId",
          "type": "uint256"
        },
        {
          "internalType": "string",
          "name": "tokenURI",
          "type": "string"
        }
      ],
      "name": "_setTokenURI",
      "outputs": [],
      "stateMutability": "nonpayable",
      "type": "function"
    },
    {
      "inputs": [
        {
          "internalType": "uint256",
          "name": "tokenId",
          "type": "uint256"
        }
      ],
      "name": "tokenURI",
      "outputs": [
        {
          "internalType": "string",
          "name": "",
          "type": "string"
        }
      ],
      "stateMutability": "view",
      "type": "function",
      "constant": true
    },
    {
      "inputs": [
        {
          "internalType": "uint256",
          "name": "_id",
          "type": "uint256"
        },
        {
          "internalType": "uint256",
          "name": "_amount",
          "type": "uint256"
        }
      ],
      "name": "mintNft",
      "outputs": [],
      "stateMutability": "payable",
      "type": "function",
      "payable": true
    },
    {
      "inputs": [],
      "name": "Token_length",
      "outputs": [
        {
          "internalType": "uint256",
          "name": "",
          "type": "uint256"
        }
      ],
      "stateMutability": "view",
      "type": "function",
      "constant": true
    },
    {
      "inputs": [],
      "name": "Withdraw",
      "outputs": [],
      "stateMutability": "nonpayable",
      "type": "function"
    },
    {
      "inputs": [],
      "name": "Contract_Owner",
      "outputs": [
        {
          "internalType": "address",
          "name": "",
          "type": "address"
        }
      ],
      "stateMutability": "view",
      "type": "function",
      "constant": true
    },
    {
      "inputs": [],
      "name": "Contract_balance",
      "outputs": [
        {
          "internalType": "uint256",
          "name": "",
          "type": "uint256"
        }
      ],
      "stateMutability": "view",
      "type": "function",
      "constant": true
    }
  ],
  "bytecode": "0x60806040526040518060800160405280600a61ffff168152602001606461ffff1681526020016103e861ffff16815260200161271061ffff1681525060049060046200004d92919062000770565b506040518060800160405280600060ff168152602001600060ff168152602001600060ff168152602001600060ff16815250600590600462000091929190620007c8565b506040518060800160405280662386f26fc1000066ffffffffffffff16815260200166470de4df82000066ffffffffffffff168152602001666a94d74f43000066ffffffffffffff168152602001668e1bc9bf04000066ffffffffffffff168152506006906004620001059291906200081f565b503480156200011357600080fd5b506040518060a00160405280606b8152602001620050b6606b91396200013f81620001f960201b60201c565b5062000160620001546200020e60201b60201c565b6200021660201b60201c565b620001843360018060405180602001604052806000815250620002dc60201b60201c565b620001a9336002600160405180602001604052806000815250620002dc60201b60201c565b620001ce336003600160405180602001604052806000815250620002dc60201b60201c565b620001f3336004600160405180602001604052806000815250620002dc60201b60201c565b620011f5565b80600290816200020a919062000b15565b5050565b600033905090565b6000600360009054906101000a900473ffffffffffffffffffffffffffffffffffffffff16905081600360006101000a81548173ffffffffffffffffffffffffffffffffffffffff021916908373ffffffffffffffffffffffffffffffffffffffff1602179055508173ffffffffffffffffffffffffffffffffffffffff168173ffffffffffffffffffffffffffffffffffffffff167f8be0079c531659141344cd1fd0a4f28419497f9722a3daafe3b4186f6b6457e060405160405180910390a35050565b600073ffffffffffffffffffffffffffffffffffffffff168473ffffffffffffffffffffffffffffffffffffffff16036200034e576040517f08c379a0000000000000000000000000000000000000000000000000000000008152600401620003459062000c83565b60405180910390fd5b6000620003606200020e60201b60201c565b905060006200037585620004c360201b60201c565b905060006200038a85620004c360201b60201c565b9050620003a3836000898585896200054460201b60201c565b8460008088815260200190815260200160002060008973ffffffffffffffffffffffffffffffffffffffff1673ffffffffffffffffffffffffffffffffffffffff168152602001908152602001600020600082825462000404919062000cd4565b925050819055508673ffffffffffffffffffffffffffffffffffffffff16600073ffffffffffffffffffffffffffffffffffffffff168473ffffffffffffffffffffffffffffffffffffffff167fc3d58168c5ae7397731d063d5bbf3d657854427343f4c083240f7aacaa2d0f6289896040516200048492919062000d20565b60405180910390a4620004a3836000898585896200054c60201b60201c565b620004ba836000898989896200055460201b60201c565b50505050505050565b60606000600167ffffffffffffffff811115620004e557620004e4620008a6565b5b604051908082528060200260200182016040528015620005145781602001602082028036833780820191505090505b50905082816000815181106200052f576200052e62000d4d565b5b60200260200101818152505080915050919050565b505050505050565b505050505050565b620005808473ffffffffffffffffffffffffffffffffffffffff166200074d60201b620010dc1760201c565b1562000745578373ffffffffffffffffffffffffffffffffffffffff1663f23a6e6187878686866040518663ffffffff1660e01b8152600401620005c995949392919062000e5b565b6020604051808303816000875af19250505080156200060857506040513d601f19601f8201168201806040525081019062000605919062000f2b565b60015b620006b9576200061762000f6a565b806308c379a0036200067a57506200062e62000fc5565b806200063b57506200067c565b806040517f08c379a0000000000000000000000000000000000000000000000000000000008152600401620006719190620010a1565b60405180910390fd5b505b6040517f08c379a0000000000000000000000000000000000000000000000000000000008152600401620006b0906200113b565b60405180910390fd5b63f23a6e6160e01b7bffffffffffffffffffffffffffffffffffffffffffffffffffffffff1916817bffffffffffffffffffffffffffffffffffffffffffffffffffffffff19161462000743576040517f08c379a00000000000000000000000000000000000000000000000000000000081526004016200073a90620011d3565b60405180910390fd5b505b505050505050565b6000808273ffffffffffffffffffffffffffffffffffffffff163b119050919050565b828054828255906000526020600020908101928215620007b5579160200282015b82811115620007b4578251829061ffff1690559160200191906001019062000791565b5b509050620007c491906200087c565b5090565b8280548282559060005260206000209081019282156200080c579160200282015b828111156200080b578251829060ff16905591602001919060010190620007e9565b5b5090506200081b91906200087c565b5090565b82805482825590600052602060002090810192821562000869579160200282015b8281111562000868578251829066ffffffffffffff1690559160200191906001019062000840565b5b5090506200087891906200087c565b5090565b5b80821115620008975760008160009055506001016200087d565b5090565b600081519050919050565b7f4e487b7100000000000000000000000000000000000000000000000000000000600052604160045260246000fd5b7f4e487b7100000000000000000000000000000000000000000000000000000000600052602260045260246000fd5b600060028204905060018216806200091d57607f821691505b602082108103620009335762000932620008d5565b5b50919050565b60008190508160005260206000209050919050565b60006020601f8301049050919050565b600082821b905092915050565b6000600883026200099d7fffffffffffffffffffffffffffffffffffffffffffffffffffffffffffffffff826200095e565b620009a986836200095e565b95508019841693508086168417925050509392505050565b6000819050919050565b6000819050919050565b6000620009f6620009f0620009ea84620009c1565b620009cb565b620009c1565b9050919050565b6000819050919050565b62000a1283620009d5565b62000a2a62000a2182620009fd565b8484546200096b565b825550505050565b600090565b62000a4162000a32565b62000a4e81848462000a07565b505050565b5b8181101562000a765762000a6a60008262000a37565b60018101905062000a54565b5050565b601f82111562000ac55762000a8f8162000939565b62000a9a846200094e565b8101602085101562000aaa578190505b62000ac262000ab9856200094e565b83018262000a53565b50505b505050565b600082821c905092915050565b600062000aea6000198460080262000aca565b1980831691505092915050565b600062000b05838362000ad7565b9150826002028217905092915050565b62000b20826200089b565b67ffffffffffffffff81111562000b3c5762000b3b620008a6565b5b62000b48825462000904565b62000b5582828562000a7a565b600060209050601f83116001811462000b8d576000841562000b78578287015190505b62000b84858262000af7565b86555062000bf4565b601f19841662000b9d8662000939565b60005b8281101562000bc75784890151825560018201915060208501945060208101905062000ba0565b8683101562000be7578489015162000be3601f89168262000ad7565b8355505b6001600288020188555050505b505050505050565b600082825260208201905092915050565b7f455243313135353a206d696e7420746f20746865207a65726f2061646472657360008201527f7300000000000000000000000000000000000000000000000000000000000000602082015250565b600062000c6b60218362000bfc565b915062000c788262000c0d565b604082019050919050565b6000602082019050818103600083015262000c9e8162000c5c565b9050919050565b7f4e487b7100000000000000000000000000000000000000000000000000000000600052601160045260246000fd5b600062000ce182620009c1565b915062000cee83620009c1565b925082820190508082111562000d095762000d0862000ca5565b5b92915050565b62000d1a81620009c1565b82525050565b600060408201905062000d37600083018562000d0f565b62000d46602083018462000d0f565b9392505050565b7f4e487b7100000000000000000000000000000000000000000000000000000000600052603260045260246000fd5b600073ffffffffffffffffffffffffffffffffffffffff82169050919050565b600062000da98262000d7c565b9050919050565b62000dbb8162000d9c565b82525050565b600081519050919050565b600082825260208201905092915050565b60005b8381101562000dfd57808201518184015260208101905062000de0565b60008484015250505050565b6000601f19601f8301169050919050565b600062000e278262000dc1565b62000e33818562000dcc565b935062000e4581856020860162000ddd565b62000e508162000e09565b840191505092915050565b600060a08201905062000e72600083018862000db0565b62000e81602083018762000db0565b62000e90604083018662000d0f565b62000e9f606083018562000d0f565b818103608083015262000eb3818462000e1a565b90509695505050505050565b6000604051905090565b600080fd5b60007fffffffff0000000000000000000000000000000000000000000000000000000082169050919050565b62000f058162000ece565b811462000f1157600080fd5b50565b60008151905062000f258162000efa565b92915050565b60006020828403121562000f445762000f4362000ec9565b5b600062000f548482850162000f14565b91505092915050565b60008160e01c9050919050565b600060033d111562000f8c5760046000803e62000f8960005162000f5d565b90505b90565b62000f9a8262000e09565b810181811067ffffffffffffffff8211171562000fbc5762000fbb620008a6565b5b80604052505050565b600060443d106200105d5762000fda62000ebf565b60043d036004823e80513d602482011167ffffffffffffffff82111715620010045750506200105d565b808201805167ffffffffffffffff8111156200102457505050506200105d565b80602083010160043d038501811115620010435750505050506200105d565b620010548260200185018662000f8f565b82955050505050505b90565b60006200106d826200089b565b62001079818562000bfc565b93506200108b81856020860162000ddd565b620010968162000e09565b840191505092915050565b60006020820190508181036000830152620010bd818462001060565b905092915050565b7f455243313135353a207472616e7366657220746f206e6f6e2d4552433131353560008201527f526563656976657220696d706c656d656e746572000000000000000000000000602082015250565b60006200112360348362000bfc565b91506200113082620010c5565b604082019050919050565b60006020820190508181036000830152620011568162001114565b9050919050565b7f455243313135353a204552433131353552656365697665722072656a6563746560008201527f6420746f6b656e73000000000000000000000000000000000000000000000000602082015250565b6000620011bb60288362000bfc565b9150620011c8826200115d565b604082019050919050565b60006020820190508181036000830152620011ee81620011ac565b9050919050565b613eb180620012056000396000f3fe60806040526004361061013f5760003560e01c80637dc0bf3f116100b6578063d7f8a0531161006f578063d7f8a0531461047f578063e985e9c5146104bc578063f09ecf10146104f9578063f242432a14610524578063f2fde38b1461054d578063f53a261d146105765761013f565b80637dc0bf3f1461034957806382181c8f146103865780638da5cb5b146103b1578063a22cb465146103dc578063b88c22e314610405578063c87b56dd146104425761013f565b806326f1a1fd1161010857806326f1a1fd1461024f5780632eb2c2d61461028c5780633d5eabf1146102b55780634e1273f4146102de57806357ea89b61461031b578063715018a6146103325761013f565b8062fdd58e14610144578063015388681461018157806301ffc9a7146101aa5780630e2374c6146101e75780630e89341c14610212575b600080fd5b34801561015057600080fd5b5061016b6004803603810190610166919061228e565b610592565b60405161017891906122dd565b60405180910390f35b34801561018d57600080fd5b506101a860048036038101906101a3919061243e565b61065a565b005b3480156101b657600080fd5b506101d160048036038101906101cc91906124f2565b610687565b6040516101de919061253a565b60405180910390f35b3480156101f357600080fd5b506101fc610769565b60405161020991906122dd565b60405180910390f35b34801561021e57600080fd5b5061023960048036038101906102349190612555565b610776565b6040516102469190612601565b60405180910390f35b34801561025b57600080fd5b5061027660048036038101906102719190612555565b6107a7565b60405161028391906122dd565b60405180910390f35b34801561029857600080fd5b506102b360048036038101906102ae919061278c565b6107cb565b005b3480156102c157600080fd5b506102dc60048036038101906102d7919061285b565b61086c565b005b3480156102ea57600080fd5b50610305600480360381019061030091906129a1565b610979565b6040516103129190612ad7565b60405180910390f35b34801561032757600080fd5b50610330610a92565b005b34801561033e57600080fd5b50610347610b2d565b005b34801561035557600080fd5b50610370600480360381019061036b9190612555565b610b41565b60405161037d91906122dd565b60405180910390f35b34801561039257600080fd5b5061039b610b65565b6040516103a891906122dd565b60405180910390f35b3480156103bd57600080fd5b506103c6610b6d565b6040516103d39190612b08565b60405180910390f35b3480156103e857600080fd5b5061040360048036038101906103fe9190612b4f565b610b97565b005b34801561041157600080fd5b5061042c60048036038101906104279190612b8f565b610bad565b60405161043991906122dd565b60405180910390f35b34801561044e57600080fd5b5061046960048036038101906104649190612555565b610bc5565b6040516104769190612601565b60405180910390f35b34801561048b57600080fd5b506104a660048036038101906104a19190612555565b610c6a565b6040516104b391906122dd565b60405180910390f35b3480156104c857600080fd5b506104e360048036038101906104de9190612bbc565b610c8e565b6040516104f0919061253a565b60405180910390f35b34801561050557600080fd5b5061050e610d22565b60405161051b9190612b08565b60405180910390f35b34801561053057600080fd5b5061054b60048036038101906105469190612bfc565b610d31565b005b34801561055957600080fd5b50610574600480360381019061056f9190612b8f565b610dd2565b005b610590600480360381019061058b9190612c93565b610e55565b005b60008073ffffffffffffffffffffffffffffffffffffffff168373ffffffffffffffffffffffffffffffffffffffff1603610602576040517f08c379a00000000000000000000000000000000000000000000000000000000081526004016105f990612d45565b60405180910390fd5b60008083815260200190815260200160002060008473ffffffffffffffffffffffffffffffffffffffff1673ffffffffffffffffffffffffffffffffffffffff16815260200190815260200160002054905092915050565b6106626110ff565b806008600084815260200190815260200160002090816106829190612f71565b505050565b60007fd9b67a26000000000000000000000000000000000000000000000000000000007bffffffffffffffffffffffffffffffffffffffffffffffffffffffff1916827bffffffffffffffffffffffffffffffffffffffffffffffffffffffff1916148061075257507f0e89341c000000000000000000000000000000000000000000000000000000007bffffffffffffffffffffffffffffffffffffffffffffffffffffffff1916827bffffffffffffffffffffffffffffffffffffffffffffffffffffffff1916145b8061076257506107618261117d565b5b9050919050565b6000600480549050905090565b6060610781826111e7565b6040516020016107919190613189565b6040516020818303038152906040529050919050565b600481815481106107b757600080fd5b906000526020600020016000915090505481565b6107d36112b5565b73ffffffffffffffffffffffffffffffffffffffff168573ffffffffffffffffffffffffffffffffffffffff1614806108195750610818856108136112b5565b610c8e565b5b610858576040517f08c379a000000000000000000000000000000000000000000000000000000000815260040161084f90613228565b60405180910390fd5b61086585858585856112bd565b5050505050565b6108746110ff565b60048054905084116108bb576040517f08c379a00000000000000000000000000000000000000000000000000000000081526004016108b290613294565b60405180910390fd5b6108d733856001604051806020016040528060008152506115de565b6108e1848261065a565b60048390806001815401808255809150506001900390600052602060002001600090919091909150556000838461091891906132e3565b9050600581908060018154018082558091505060019003906000526020600020016000909190919091505560008390506006819080600181540180825580915050600190039060005260206000200160009091909190915055505050505050565b606081518351146109bf576040517f08c379a00000000000000000000000000000000000000000000000000000000081526004016109b690613389565b60405180910390fd5b6000835167ffffffffffffffff8111156109dc576109db612313565b5b604051908082528060200260200182016040528015610a0a5781602001602082028036833780820191505090505b50905060005b8451811015610a8757610a57858281518110610a2f57610a2e6133a9565b5b6020026020010151858381518110610a4a57610a496133a9565b5b6020026020010151610592565b828281518110610a6a57610a696133a9565b5b60200260200101818152505080610a80906133d8565b9050610a10565b508091505092915050565b610a9a6110ff565b60004711610add576040517f08c379a0000000000000000000000000000000000000000000000000000000008152600401610ad49061346c565b60405180910390fd5b610ae5610b6d565b73ffffffffffffffffffffffffffffffffffffffff166108fc479081150290604051600060405180830381858888f19350505050158015610b2a573d6000803e3d6000fd5b50565b610b356110ff565b610b3f600061178e565b565b60058181548110610b5157600080fd5b906000526020600020016000915090505481565b600047905090565b6000600360009054906101000a900473ffffffffffffffffffffffffffffffffffffffff16905090565b610ba9610ba26112b5565b8383611854565b5050565b60076020528060005260406000206000915090505481565b6060600860008381526020019081526020016000208054610be590612d94565b80601f0160208091040260200160405190810160405280929190818152602001828054610c1190612d94565b8015610c5e5780601f10610c3357610100808354040283529160200191610c5e565b820191906000526020600020905b815481529060010190602001808311610c4157829003601f168201915b50505050509050919050565b60068181548110610c7a57600080fd5b906000526020600020016000915090505481565b6000600160008473ffffffffffffffffffffffffffffffffffffffff1673ffffffffffffffffffffffffffffffffffffffff16815260200190815260200160002060008373ffffffffffffffffffffffffffffffffffffffff1673ffffffffffffffffffffffffffffffffffffffff16815260200190815260200160002060009054906101000a900460ff16905092915050565b6000610d2c610b6d565b905090565b610d396112b5565b73ffffffffffffffffffffffffffffffffffffffff168573ffffffffffffffffffffffffffffffffffffffff161480610d7f5750610d7e85610d796112b5565b610c8e565b5b610dbe576040517f08c379a0000000000000000000000000000000000000000000000000000000008152600401610db590613228565b60405180910390fd5b610dcb85858585856119c0565b5050505050565b610dda6110ff565b600073ffffffffffffffffffffffffffffffffffffffff168173ffffffffffffffffffffffffffffffffffffffff1603610e49576040517f08c379a0000000000000000000000000000000000000000000000000000000008152600401610e40906134fe565b60405180910390fd5b610e528161178e565b50565b600480549050821115610e9d576040517f08c379a0000000000000000000000000000000000000000000000000000000008152600401610e949061356a565b60405180910390fd5b6000600183610eac91906132e3565b90508160068281548110610ec357610ec26133a9565b5b9060005260206000200154610ed8919061358a565b3414610f19576040517f08c379a0000000000000000000000000000000000000000000000000000000008152600401610f1090613618565b60405180910390fd5b60048181548110610f2d57610f2c6133a9565b5b90600052602060002001548260058381548110610f4d57610f4c6133a9565b5b9060005260206000200154610f629190613638565b1115610fa3576040517f08c379a0000000000000000000000000000000000000000000000000000000008152600401610f9a906136b8565b60405180910390fd5b600a82600760003373ffffffffffffffffffffffffffffffffffffffff1673ffffffffffffffffffffffffffffffffffffffff16815260200190815260200160002054610ff09190613638565b1115611031576040517f08c379a00000000000000000000000000000000000000000000000000000000081526004016110289061374a565b60405180910390fd5b61104c338484604051806020016040528060008152506115de565b8160058281548110611061576110606133a9565b5b90600052602060002001600082825461107a9190613638565b9250508190555081600760003373ffffffffffffffffffffffffffffffffffffffff1673ffffffffffffffffffffffffffffffffffffffff16815260200190815260200160002060008282546110d09190613638565b92505081905550505050565b6000808273ffffffffffffffffffffffffffffffffffffffff163b119050919050565b6111076112b5565b73ffffffffffffffffffffffffffffffffffffffff16611125610b6d565b73ffffffffffffffffffffffffffffffffffffffff161461117b576040517f08c379a0000000000000000000000000000000000000000000000000000000008152600401611172906137b6565b60405180910390fd5b565b60007f01ffc9a7000000000000000000000000000000000000000000000000000000007bffffffffffffffffffffffffffffffffffffffffffffffffffffffff1916827bffffffffffffffffffffffffffffffffffffffffffffffffffffffff1916149050919050565b6060600060016111f684611c5b565b01905060008167ffffffffffffffff81111561121557611214612313565b5b6040519080825280601f01601f1916602001820160405280156112475781602001600182028036833780820191505090505b509050600082602001820190505b6001156112aa578080600190039150507f3031323334353637383961626364656600000000000000000000000000000000600a86061a8153600a858161129e5761129d6137d6565b5b04945060008503611255575b819350505050919050565b600033905090565b8151835114611301576040517f08c379a00000000000000000000000000000000000000000000000000000000081526004016112f890613877565b60405180910390fd5b600073ffffffffffffffffffffffffffffffffffffffff168473ffffffffffffffffffffffffffffffffffffffff1603611370576040517f08c379a000000000000000000000000000000000000000000000000000000000815260040161136790613909565b60405180910390fd5b600061137a6112b5565b905061138a818787878787611dae565b60005b845181101561153b5760008582815181106113ab576113aa6133a9565b5b6020026020010151905060008583815181106113ca576113c96133a9565b5b60200260200101519050600080600084815260200190815260200160002060008b73ffffffffffffffffffffffffffffffffffffffff1673ffffffffffffffffffffffffffffffffffffffff1681526020019081526020016000205490508181101561146b576040517f08c379a00000000000000000000000000000000000000000000000000000000081526004016114629061399b565b60405180910390fd5b81810360008085815260200190815260200160002060008c73ffffffffffffffffffffffffffffffffffffffff1673ffffffffffffffffffffffffffffffffffffffff168152602001908152602001600020819055508160008085815260200190815260200160002060008b73ffffffffffffffffffffffffffffffffffffffff1673ffffffffffffffffffffffffffffffffffffffff16815260200190815260200160002060008282546115209190613638565b9250508190555050505080611534906133d8565b905061138d565b508473ffffffffffffffffffffffffffffffffffffffff168673ffffffffffffffffffffffffffffffffffffffff168273ffffffffffffffffffffffffffffffffffffffff167f4a39dc06d4c0dbc64b70af90fd698a233a518aa5d07e595d983b8c0526c8f7fb87876040516115b29291906139bb565b60405180910390a46115c8818787878787611db6565b6115d6818787878787611dbe565b505050505050565b600073ffffffffffffffffffffffffffffffffffffffff168473ffffffffffffffffffffffffffffffffffffffff160361164d576040517f08c379a000000000000000000000000000000000000000000000000000000000815260040161164490613a64565b60405180910390fd5b60006116576112b5565b9050600061166485611f95565b9050600061167185611f95565b905061168283600089858589611dae565b8460008088815260200190815260200160002060008973ffffffffffffffffffffffffffffffffffffffff1673ffffffffffffffffffffffffffffffffffffffff16815260200190815260200160002060008282546116e19190613638565b925050819055508673ffffffffffffffffffffffffffffffffffffffff16600073ffffffffffffffffffffffffffffffffffffffff168473ffffffffffffffffffffffffffffffffffffffff167fc3d58168c5ae7397731d063d5bbf3d657854427343f4c083240f7aacaa2d0f62898960405161175f929190613a84565b60405180910390a461177683600089858589611db6565b6117858360008989898961200f565b50505050505050565b6000600360009054906101000a900473ffffffffffffffffffffffffffffffffffffffff16905081600360006101000a81548173ffffffffffffffffffffffffffffffffffffffff021916908373ffffffffffffffffffffffffffffffffffffffff1602179055508173ffffffffffffffffffffffffffffffffffffffff168173ffffffffffffffffffffffffffffffffffffffff167f8be0079c531659141344cd1fd0a4f28419497f9722a3daafe3b4186f6b6457e060405160405180910390a35050565b8173ffffffffffffffffffffffffffffffffffffffff168373ffffffffffffffffffffffffffffffffffffffff16036118c2576040517f08c379a00000000000000000000000000000000000000000000000000000000081526004016118b990613b1f565b60405180910390fd5b80600160008573ffffffffffffffffffffffffffffffffffffffff1673ffffffffffffffffffffffffffffffffffffffff16815260200190815260200160002060008473ffffffffffffffffffffffffffffffffffffffff1673ffffffffffffffffffffffffffffffffffffffff16815260200190815260200160002060006101000a81548160ff0219169083151502179055508173ffffffffffffffffffffffffffffffffffffffff168373ffffffffffffffffffffffffffffffffffffffff167f17307eab39ab6107e8899845ad3d59bd9653f200f220920489ca2b5937696c31836040516119b3919061253a565b60405180910390a3505050565b600073ffffffffffffffffffffffffffffffffffffffff168473ffffffffffffffffffffffffffffffffffffffff1603611a2f576040517f08c379a0000000000000000000000000000000000000000000000000000000008152600401611a2690613909565b60405180910390fd5b6000611a396112b5565b90506000611a4685611f95565b90506000611a5385611f95565b9050611a63838989858589611dae565b600080600088815260200190815260200160002060008a73ffffffffffffffffffffffffffffffffffffffff1673ffffffffffffffffffffffffffffffffffffffff16815260200190815260200160002054905085811015611afa576040517f08c379a0000000000000000000000000000000000000000000000000000000008152600401611af19061399b565b60405180910390fd5b85810360008089815260200190815260200160002060008b73ffffffffffffffffffffffffffffffffffffffff1673ffffffffffffffffffffffffffffffffffffffff168152602001908152602001600020819055508560008089815260200190815260200160002060008a73ffffffffffffffffffffffffffffffffffffffff1673ffffffffffffffffffffffffffffffffffffffff1681526020019081526020016000206000828254611baf9190613638565b925050819055508773ffffffffffffffffffffffffffffffffffffffff168973ffffffffffffffffffffffffffffffffffffffff168573ffffffffffffffffffffffffffffffffffffffff167fc3d58168c5ae7397731d063d5bbf3d657854427343f4c083240f7aacaa2d0f628a8a604051611c2c929190613a84565b60405180910390a4611c42848a8a86868a611db6565b611c50848a8a8a8a8a61200f565b505050505050505050565b600080600090507a184f03e93ff9f4daa797ed6e38ed64bf6a1f0100000000000000008310611cb9577a184f03e93ff9f4daa797ed6e38ed64bf6a1f0100000000000000008381611caf57611cae6137d6565b5b0492506040810190505b6d04ee2d6d415b85acef81000000008310611cf6576d04ee2d6d415b85acef81000000008381611cec57611ceb6137d6565b5b0492506020810190505b662386f26fc100008310611d2557662386f26fc100008381611d1b57611d1a6137d6565b5b0492506010810190505b6305f5e1008310611d4e576305f5e1008381611d4457611d436137d6565b5b0492506008810190505b6127108310611d73576127108381611d6957611d686137d6565b5b0492506004810190505b60648310611d965760648381611d8c57611d8b6137d6565b5b0492506002810190505b600a8310611da5576001810190505b80915050919050565b505050505050565b505050505050565b611ddd8473ffffffffffffffffffffffffffffffffffffffff166110dc565b15611f8d578373ffffffffffffffffffffffffffffffffffffffff1663bc197c8187878686866040518663ffffffff1660e01b8152600401611e23959493929190613b94565b6020604051808303816000875af1925050508015611e5f57506040513d601f19601f82011682018060405250810190611e5c9190613c11565b60015b611f0457611e6b613c4b565b806308c379a003611ec75750611e7f613c6d565b80611e8a5750611ec9565b806040517f08c379a0000000000000000000000000000000000000000000000000000000008152600401611ebe9190612601565b60405180910390fd5b505b6040517f08c379a0000000000000000000000000000000000000000000000000000000008152600401611efb90613d6f565b60405180910390fd5b63bc197c8160e01b7bffffffffffffffffffffffffffffffffffffffffffffffffffffffff1916817bffffffffffffffffffffffffffffffffffffffffffffffffffffffff191614611f8b576040517f08c379a0000000000000000000000000000000000000000000000000000000008152600401611f8290613e01565b60405180910390fd5b505b505050505050565b60606000600167ffffffffffffffff811115611fb457611fb3612313565b5b604051908082528060200260200182016040528015611fe25781602001602082028036833780820191505090505b5090508281600081518110611ffa57611ff96133a9565b5b60200260200101818152505080915050919050565b61202e8473ffffffffffffffffffffffffffffffffffffffff166110dc565b156121de578373ffffffffffffffffffffffffffffffffffffffff1663f23a6e6187878686866040518663ffffffff1660e01b8152600401612074959493929190613e21565b6020604051808303816000875af19250505080156120b057506040513d601f19601f820116820180604052508101906120ad9190613c11565b60015b612155576120bc613c4b565b806308c379a00361211857506120d0613c6d565b806120db575061211a565b806040517f08c379a000000000000000000000000000000000000000000000000000000000815260040161210f9190612601565b60405180910390fd5b505b6040517f08c379a000000000000000000000000000000000000000000000000000000000815260040161214c90613d6f565b60405180910390fd5b63f23a6e6160e01b7bffffffffffffffffffffffffffffffffffffffffffffffffffffffff1916817bffffffffffffffffffffffffffffffffffffffffffffffffffffffff1916146121dc576040517f08c379a00000000000000000000000000000000000000000000000000000000081526004016121d390613e01565b60405180910390fd5b505b505050505050565b6000604051905090565b600080fd5b600080fd5b600073ffffffffffffffffffffffffffffffffffffffff82169050919050565b6000612225826121fa565b9050919050565b6122358161221a565b811461224057600080fd5b50565b6000813590506122528161222c565b92915050565b6000819050919050565b61226b81612258565b811461227657600080fd5b50565b60008135905061228881612262565b92915050565b600080604083850312156122a5576122a46121f0565b5b60006122b385828601612243565b92505060206122c485828601612279565b9150509250929050565b6122d781612258565b82525050565b60006020820190506122f260008301846122ce565b92915050565b600080fd5b600080fd5b6000601f19601f8301169050919050565b7f4e487b7100000000000000000000000000000000000000000000000000000000600052604160045260246000fd5b61234b82612302565b810181811067ffffffffffffffff8211171561236a57612369612313565b5b80604052505050565b600061237d6121e6565b90506123898282612342565b919050565b600067ffffffffffffffff8211156123a9576123a8612313565b5b6123b282612302565b9050602081019050919050565b82818337600083830152505050565b60006123e16123dc8461238e565b612373565b9050828152602081018484840111156123fd576123fc6122fd565b5b6124088482856123bf565b509392505050565b600082601f830112612425576124246122f8565b5b81356124358482602086016123ce565b91505092915050565b60008060408385031215612455576124546121f0565b5b600061246385828601612279565b925050602083013567ffffffffffffffff811115612484576124836121f5565b5b61249085828601612410565b9150509250929050565b60007fffffffff0000000000000000000000000000000000000000000000000000000082169050919050565b6124cf8161249a565b81146124da57600080fd5b50565b6000813590506124ec816124c6565b92915050565b600060208284031215612508576125076121f0565b5b6000612516848285016124dd565b91505092915050565b60008115159050919050565b6125348161251f565b82525050565b600060208201905061254f600083018461252b565b92915050565b60006020828403121561256b5761256a6121f0565b5b600061257984828501612279565b91505092915050565b600081519050919050565b600082825260208201905092915050565b60005b838110156125bc5780820151818401526020810190506125a1565b60008484015250505050565b60006125d382612582565b6125dd818561258d565b93506125ed81856020860161259e565b6125f681612302565b840191505092915050565b6000602082019050818103600083015261261b81846125c8565b905092915050565b600067ffffffffffffffff82111561263e5761263d612313565b5b602082029050602081019050919050565b600080fd5b600061266761266284612623565b612373565b9050808382526020820190506020840283018581111561268a5761268961264f565b5b835b818110156126b3578061269f8882612279565b84526020840193505060208101905061268c565b5050509392505050565b600082601f8301126126d2576126d16122f8565b5b81356126e2848260208601612654565b91505092915050565b600067ffffffffffffffff82111561270657612705612313565b5b61270f82612302565b9050602081019050919050565b600061272f61272a846126eb565b612373565b90508281526020810184848401111561274b5761274a6122fd565b5b6127568482856123bf565b509392505050565b600082601f830112612773576127726122f8565b5b813561278384826020860161271c565b91505092915050565b600080600080600060a086880312156127a8576127a76121f0565b5b60006127b688828901612243565b95505060206127c788828901612243565b945050604086013567ffffffffffffffff8111156127e8576127e76121f5565b5b6127f4888289016126bd565b935050606086013567ffffffffffffffff811115612815576128146121f5565b5b612821888289016126bd565b925050608086013567ffffffffffffffff811115612842576128416121f5565b5b61284e8882890161275e565b9150509295509295909350565b60008060008060808587031215612875576128746121f0565b5b600061288387828801612279565b945050602061289487828801612279565b93505060406128a587828801612279565b925050606085013567ffffffffffffffff8111156128c6576128c56121f5565b5b6128d287828801612410565b91505092959194509250565b600067ffffffffffffffff8211156128f9576128f8612313565b5b602082029050602081019050919050565b600061291d612918846128de565b612373565b905080838252602082019050602084028301858111156129405761293f61264f565b5b835b8181101561296957806129558882612243565b845260208401935050602081019050612942565b5050509392505050565b600082601f830112612988576129876122f8565b5b813561299884826020860161290a565b91505092915050565b600080604083850312156129b8576129b76121f0565b5b600083013567ffffffffffffffff8111156129d6576129d56121f5565b5b6129e285828601612973565b925050602083013567ffffffffffffffff811115612a0357612a026121f5565b5b612a0f858286016126bd565b9150509250929050565b600081519050919050565b600082825260208201905092915050565b6000819050602082019050919050565b612a4e81612258565b82525050565b6000612a608383612a45565b60208301905092915050565b6000602082019050919050565b6000612a8482612a19565b612a8e8185612a24565b9350612a9983612a35565b8060005b83811015612aca578151612ab18882612a54565b9750612abc83612a6c565b925050600181019050612a9d565b5085935050505092915050565b60006020820190508181036000830152612af18184612a79565b905092915050565b612b028161221a565b82525050565b6000602082019050612b1d6000830184612af9565b92915050565b612b2c8161251f565b8114612b3757600080fd5b50565b600081359050612b4981612b23565b92915050565b60008060408385031215612b6657612b656121f0565b5b6000612b7485828601612243565b9250506020612b8585828601612b3a565b9150509250929050565b600060208284031215612ba557612ba46121f0565b5b6000612bb384828501612243565b91505092915050565b60008060408385031215612bd357612bd26121f0565b5b6000612be185828601612243565b9250506020612bf285828601612243565b9150509250929050565b600080600080600060a08688031215612c1857612c176121f0565b5b6000612c2688828901612243565b9550506020612c3788828901612243565b9450506040612c4888828901612279565b9350506060612c5988828901612279565b925050608086013567ffffffffffffffff811115612c7a57612c796121f5565b5b612c868882890161275e565b9150509295509295909350565b60008060408385031215612caa57612ca96121f0565b5b6000612cb885828601612279565b9250506020612cc985828601612279565b9150509250929050565b7f455243313135353a2061646472657373207a65726f206973206e6f742061207660008201527f616c6964206f776e657200000000000000000000000000000000000000000000602082015250565b6000612d2f602a8361258d565b9150612d3a82612cd3565b604082019050919050565b60006020820190508181036000830152612d5e81612d22565b9050919050565b7f4e487b7100000000000000000000000000000000000000000000000000000000600052602260045260246000fd5b60006002820490506001821680612dac57607f821691505b602082108103612dbf57612dbe612d65565b5b50919050565b60008190508160005260206000209050919050565b60006020601f8301049050919050565b600082821b905092915050565b600060088302612e277fffffffffffffffffffffffffffffffffffffffffffffffffffffffffffffffff82612dea565b612e318683612dea565b95508019841693508086168417925050509392505050565b6000819050919050565b6000612e6e612e69612e6484612258565b612e49565b612258565b9050919050565b6000819050919050565b612e8883612e53565b612e9c612e9482612e75565b848454612df7565b825550505050565b600090565b612eb1612ea4565b612ebc818484612e7f565b505050565b5b81811015612ee057612ed5600082612ea9565b600181019050612ec2565b5050565b601f821115612f2557612ef681612dc5565b612eff84612dda565b81016020851015612f0e578190505b612f22612f1a85612dda565b830182612ec1565b50505b505050565b600082821c905092915050565b6000612f4860001984600802612f2a565b1980831691505092915050565b6000612f618383612f37565b9150826002028217905092915050565b612f7a82612582565b67ffffffffffffffff811115612f9357612f92612313565b5b612f9d8254612d94565b612fa8828285612ee4565b600060209050601f831160018114612fdb5760008415612fc9578287015190505b612fd38582612f55565b86555061303b565b601f198416612fe986612dc5565b60005b8281101561301157848901518255600182019150602085019450602081019050612fec565b8683101561302e578489015161302a601f891682612f37565b8355505b6001600288020188555050505b505050505050565b600081905092915050565b7f68747470733a2f2f62616679626569636b7267796f6f7336353633703668667660008201527f6b766e78757478796b34706e627a747033686e37776a63337a646b71717a323360208201527f3735752e697066732e6e667473746f726167652e6c696e6b2f6d65746164617460408201527f612f000000000000000000000000000000000000000000000000000000000000606082015250565b60006130f6606283613043565b91506131018261304e565b606282019050919050565b600061311782612582565b6131218185613043565b935061313181856020860161259e565b80840191505092915050565b7f2e6a736f6e000000000000000000000000000000000000000000000000000000600082015250565b6000613173600583613043565b915061317e8261313d565b600582019050919050565b6000613194826130e9565b91506131a0828461310c565b91506131ab82613166565b915081905092915050565b7f455243313135353a2063616c6c6572206973206e6f7420746f6b656e206f776e60008201527f6572206f7220617070726f766564000000000000000000000000000000000000602082015250565b6000613212602e8361258d565b915061321d826131b6565b604082019050919050565b6000602082019050818103600083015261324181613205565b9050919050565b7f5468697320746f6b656e20696420697320616c72656479206578697374730000600082015250565b600061327e601e8361258d565b915061328982613248565b602082019050919050565b600060208201905081810360008301526132ad81613271565b9050919050565b7f4e487b7100000000000000000000000000000000000000000000000000000000600052601160045260246000fd5b60006132ee82612258565b91506132f983612258565b9250828203905081811115613311576133106132b4565b5b92915050565b7f455243313135353a206163636f756e747320616e6420696473206c656e67746860008201527f206d69736d617463680000000000000000000000000000000000000000000000602082015250565b600061337360298361258d565b915061337e82613317565b604082019050919050565b600060208201905081810360008301526133a281613366565b9050919050565b7f4e487b7100000000000000000000000000000000000000000000000000000000600052603260045260246000fd5b60006133e382612258565b91507fffffffffffffffffffffffffffffffffffffffffffffffffffffffffffffffff8203613415576134146132b4565b5b600182019050919050565b7f436f6e74726163742062616c616e636520697320300000000000000000000000600082015250565b600061345660158361258d565b915061346182613420565b602082019050919050565b6000602082019050818103600083015261348581613449565b9050919050565b7f4f776e61626c653a206e6577206f776e657220697320746865207a65726f206160008201527f6464726573730000000000000000000000000000000000000000000000000000602082015250565b60006134e860268361258d565b91506134f38261348c565b604082019050919050565b60006020820190508181036000830152613517816134db565b9050919050565b7f5468697320746f6b656e206973206e6f7420617661696c61626c650000000000600082015250565b6000613554601b8361258d565b915061355f8261351e565b602082019050919050565b6000602082019050818103600083015261358381613547565b9050919050565b600061359582612258565b91506135a083612258565b92508282026135ae81612258565b915082820484148315176135c5576135c46132b4565b5b5092915050565b7f4e6f7420656e6f7567682065746865722076616c756500000000000000000000600082015250565b600061360260168361258d565b915061360d826135cc565b602082019050919050565b60006020820190508181036000830152613631816135f5565b9050919050565b600061364382612258565b915061364e83612258565b9250828201905080821115613666576136656132b4565b5b92915050565b7f4f7574206f6620746f6b656e206c696d69740000000000000000000000000000600082015250565b60006136a260128361258d565b91506136ad8261366c565b602082019050919050565b600060208201905081810360008301526136d181613695565b9050919050565b7f446f6e2774206d696e74207468656e203130204e4654206f6e2074686973206160008201527f63636f756e740000000000000000000000000000000000000000000000000000602082015250565b600061373460268361258d565b915061373f826136d8565b604082019050919050565b6000602082019050818103600083015261376381613727565b9050919050565b7f4f776e61626c653a2063616c6c6572206973206e6f7420746865206f776e6572600082015250565b60006137a060208361258d565b91506137ab8261376a565b602082019050919050565b600060208201905081810360008301526137cf81613793565b9050919050565b7f4e487b7100000000000000000000000000000000000000000000000000000000600052601260045260246000fd5b7f455243313135353a2069647320616e6420616d6f756e7473206c656e6774682060008201527f6d69736d61746368000000000000000000000000000000000000000000000000602082015250565b600061386160288361258d565b915061386c82613805565b604082019050919050565b6000602082019050818103600083015261389081613854565b9050919050565b7f455243313135353a207472616e7366657220746f20746865207a65726f20616460008201527f6472657373000000000000000000000000000000000000000000000000000000602082015250565b60006138f360258361258d565b91506138fe82613897565b604082019050919050565b60006020820190508181036000830152613922816138e6565b9050919050565b7f455243313135353a20696e73756666696369656e742062616c616e636520666f60008201527f72207472616e7366657200000000000000000000000000000000000000000000602082015250565b6000613985602a8361258d565b915061399082613929565b604082019050919050565b600060208201905081810360008301526139b481613978565b9050919050565b600060408201905081810360008301526139d58185612a79565b905081810360208301526139e98184612a79565b90509392505050565b7f455243313135353a206d696e7420746f20746865207a65726f2061646472657360008201527f7300000000000000000000000000000000000000000000000000000000000000602082015250565b6000613a4e60218361258d565b9150613a59826139f2565b604082019050919050565b60006020820190508181036000830152613a7d81613a41565b9050919050565b6000604082019050613a9960008301856122ce565b613aa660208301846122ce565b9392505050565b7f455243313135353a2073657474696e6720617070726f76616c2073746174757360008201527f20666f722073656c660000000000000000000000000000000000000000000000602082015250565b6000613b0960298361258d565b9150613b1482613aad565b604082019050919050565b60006020820190508181036000830152613b3881613afc565b9050919050565b600081519050919050565b600082825260208201905092915050565b6000613b6682613b3f565b613b708185613b4a565b9350613b8081856020860161259e565b613b8981612302565b840191505092915050565b600060a082019050613ba96000830188612af9565b613bb66020830187612af9565b8181036040830152613bc88186612a79565b90508181036060830152613bdc8185612a79565b90508181036080830152613bf08184613b5b565b90509695505050505050565b600081519050613c0b816124c6565b92915050565b600060208284031215613c2757613c266121f0565b5b6000613c3584828501613bfc565b91505092915050565b60008160e01c9050919050565b600060033d1115613c6a5760046000803e613c67600051613c3e565b90505b90565b600060443d10613cfa57613c7f6121e6565b60043d036004823e80513d602482011167ffffffffffffffff82111715613ca7575050613cfa565b808201805167ffffffffffffffff811115613cc55750505050613cfa565b80602083010160043d038501811115613ce2575050505050613cfa565b613cf182602001850186612342565b82955050505050505b90565b7f455243313135353a207472616e7366657220746f206e6f6e2d4552433131353560008201527f526563656976657220696d706c656d656e746572000000000000000000000000602082015250565b6000613d5960348361258d565b9150613d6482613cfd565b604082019050919050565b60006020820190508181036000830152613d8881613d4c565b9050919050565b7f455243313135353a204552433131353552656365697665722072656a6563746560008201527f6420746f6b656e73000000000000000000000000000000000000000000000000602082015250565b6000613deb60288361258d565b9150613df682613d8f565b604082019050919050565b60006020820190508181036000830152613e1a81613dde565b9050919050565b600060a082019050613e366000830188612af9565b613e436020830187612af9565b613e5060408301866122ce565b613e5d60608301856122ce565b8181036080830152613e6f8184613b5b565b9050969550505050505056fea2646970667358221220f7d202521cf43b5f4911809a9bb35fddebdf7c868c2347cf9754bcf90f58449264736f6c6343000811003368747470733a2f2f626166796265696162363670676533707671776f6b6936643476786b6b66776e6f3274796e6c656f703566667775366b7669797075756b657761792e697066732e6e667473746f726167652e6c696e6b2f6d657461646174612f7b69647d2e6a736f6e",
  "immutableReferences": {},
  "source": "// SPDX-License-Identifier: MIT\npragma solidity ^0.8.17;\n\nimport \"@openzeppelin/contracts/token/ERC1155/ERC1155.sol\";\nimport \"@openzeppelin/contracts/access/Ownable.sol\";\nimport \"@openzeppelin/contracts/utils/Strings.sol\";\n\ncontract NFT is ERC1155,Ownable{\n\n    uint256[] public supplies = [10,100,1000,10000];\n    uint256[] public minted = [0,0,0,0];\n    uint256[] public TokenRate = [0.01 ether, 0.02 ether ,0.03 ether ,0.04 ether];\n    mapping(address => uint256) public Totalbal;\n    mapping(uint=>string) private _tokenURIs;\n\n    constructor() ERC1155(\"https://bafybeiab66pge3pvqwoki6d4vxkkfwno2tynleop5ffwu6kviypuukeway.ipfs.nftstorage.link/metadata/{id}.json\"){\n        _mint(msg.sender,1,1,\"\");\n        _mint(msg.sender,2,1,\"\");\n        _mint(msg.sender,3,1,\"\");\n        _mint(msg.sender,4,1,\"\");\n    }\n\n    function AddnewToken(uint256 tokenId,uint256 totalSupply, uint256 Price ,string memory tokenURI) public onlyOwner{\n        require(tokenId > supplies.length,\"This token id is alredy exists\");\n        _mint(msg.sender,tokenId,1,\"\");\n        _setTokenURI(tokenId,tokenURI);\n        supplies.push(totalSupply);\n        uint256 mint = totalSupply-totalSupply;\n        minted.push(mint);\n        uint256 rate = Price;\n        TokenRate.push(rate);\n    }\n\n\n    function uri(uint tokenId) override public view returns(string memory){\n        return(\n            string(abi.encodePacked(\n                \"https://bafybeickrgyoos6563p6hfvkvnxutxyk4pnbztp3hn7wjc3zdkqqz2375u.ipfs.nftstorage.link/metadata/\",\n                Strings.toString(tokenId),\n                \".json\"\n            ))\n        );\n    }   \n\n    function _setTokenURI(uint256 tokenId,string memory tokenURI) public onlyOwner{\n        _tokenURIs[tokenId] = tokenURI;\n    }\n\n    function tokenURI(uint tokenId) public view returns(string memory){\n        return _tokenURIs[tokenId];\n    }\n\n    function mintNft(uint256 _id,uint256 _amount) public payable {\n        require(_id <= supplies.length,\"This token is not available\");\n        uint256 index = _id - 1 ;\n        require(msg.value == TokenRate[index]*_amount,\"Not enough ether value\");\n        require(minted[index] + _amount<=supplies[index],\"Out of token limit\");\n        require(Totalbal[msg.sender]+_amount <= 10,\"Don't mint then 10 NFT on this account\");\n        _mint(msg.sender,_id,_amount,\"\");\n        minted[index] += _amount;\n        Totalbal[msg.sender] += _amount;\n    }\n\n    function Token_length() view public returns(uint){\n        return supplies.length;\n    }\n    \n\n    function Withdraw() public onlyOwner{\n        require(address(this).balance > 0,\"Contract balance is 0\");\n        payable(owner()).transfer(address(this).balance);\n    }\n\n    function Contract_Owner() public view returns(address){\n        return owner();\n    }\n    \n    function Contract_balance() public view returns(uint){\n        return(address(this).balance);\n    } \n}\n\n\n\n\n// 0x82C2cf14150Bc885fE30AEe7480AC2cdc4eA9600\n\n// 0x27F36aA9c0E582689Cb167a619d653ce20929a44",
  "sourcePath": "/home/hp/Documents/block-chain/solidity/Truffle/EERC11555/contracts/NFT.sol",
  "compiler": {
    "name": "solc",
    "version": "0.8.17+commit.8df45f5f.Emscripten.clang"
  },
  "schemaVersion": "3.4.11",
  "updatedAt": "2023-03-13T12:16:49.257Z",
  "networkType": "ethereum",
  "devdoc": {
    "kind": "dev",
    "methods": {
      "balanceOf(address,uint256)": {
        "details": "See {IERC1155-balanceOf}. Requirements: - `account` cannot be the zero address."
      },
      "balanceOfBatch(address[],uint256[])": {
        "details": "See {IERC1155-balanceOfBatch}. Requirements: - `accounts` and `ids` must have the same length."
      },
      "isApprovedForAll(address,address)": {
        "details": "See {IERC1155-isApprovedForAll}."
      },
      "owner()": {
        "details": "Returns the address of the current owner."
      },
      "renounceOwnership()": {
        "details": "Leaves the contract without owner. It will not be possible to call `onlyOwner` functions anymore. Can only be called by the current owner. NOTE: Renouncing ownership will leave the contract without an owner, thereby removing any functionality that is only available to the owner."
      },
      "safeBatchTransferFrom(address,address,uint256[],uint256[],bytes)": {
        "details": "See {IERC1155-safeBatchTransferFrom}."
      },
      "safeTransferFrom(address,address,uint256,uint256,bytes)": {
        "details": "See {IERC1155-safeTransferFrom}."
      },
      "setApprovalForAll(address,bool)": {
        "details": "See {IERC1155-setApprovalForAll}."
      },
      "supportsInterface(bytes4)": {
        "details": "See {IERC165-supportsInterface}."
      },
      "transferOwnership(address)": {
        "details": "Transfers ownership of the contract to a new account (`newOwner`). Can only be called by the current owner."
      }
    },
    "version": 1
  },
  "userdoc": {
    "kind": "user",
    "methods": {},
    "version": 1
  }
}